:100000000C9434000C9408010C9446000C9471007C
:100010000C9446000C9446000C9446000C94460048
:100020000C9446000C9446000C9446000C94460038
:100030000C9446000C9446000C9446000C94460028
:100040000C9446000C9446000C9441010C9446001C
:100050000C9446000C9446000C9446000C94460008
:100060000C9446000C94460011241FBECFEFD8E03C
:10007000DEBFCDBF21E0A0E0B1E001C01D92A13004
:10008000B207E1F70E9468000C9477010C9400001D
:10009000F89414B88FE185B98AB18B7F8AB98BB196
:1000A00084608BB90E945501EBE6F0E080818F619E
:1000B0008083E8E6F0E0808181608083E9E6F0E01B
:1000C00080818C7F80838DB381608DBB789408950F
:1000D0000E9448008FE39CE90197F1F700C00000FF
:1000E000F9CF1F920F920FB60F9211242F933F93C7
:1000F0004F935F936F937F938F939F93AF93BF9330
:10010000EF93FF93189915C02FEF89EF90E02150DE
:1001100080409040E1F700C0000081E30E94700140
:1001200006C08FE39CE90197F1F700C00000189B1F
:10013000F8CF199915C09FEF29EF80E0915020402A
:100140008040E1F700C0000082E30E94700106C019
:100150008FE39CE90197F1F700C00000199BF8CFED
:100160001A9916C09FEF29EF80E0915020408040FF
:10017000E1F700C0000083E30E94700106C08FE336
:100180009CE90197F1F700C000001A9BF8CF2FC03F
:100190001B9916C09FEF29EF80E0915020408040CE
:1001A000E1F700C0000084E30E94700106C08FE305
:1001B0009CE90197F1F700C000001B9BF8CF17C026
:1001C0001C9915C09FEF29EF80E09150204080409E
:1001D000E1F700C0000085E30E94700106C08FE3D4
:1001E0009CE90197F1F700C000001C9BF8CFFF913C
:1001F000EF91BF91AF919F918F917F916F915F919F
:100200004F913F912F910F900FBE0F901F90189517
:100210001F920F920FB60F9211242F933F934F937B
:100220005F936F937F938F939F93AF93BF93EF935E
:10023000FF934A9915C02FEF89EF90E0215080403D
:100240009040E1F700C0000086E30E94700106C004
:100250008FE39CE90197F1F700C000004A9BF8CFBB
:10026000FF91EF91BF91AF919F918F917F916F918E
:100270005F914F913F912F910F900FBE0F901F9064
:1002800018951F920F920FB60F9211248F938091A1
:10029000C600809300018091C00085FFFCCF8F9144
:1002A0000F900FBE0F901F9018958AB18E7F8AB95C
:1002B0008AB182608AB91092C000E1ECF0E010824D
:1002C000808188698083E2ECF0E010828081866022
:1002D000808387E690E09093C5008093C4000895E2
:1002E0009091C00095FFFCCF8093C6000895F894CC
:0202F000FFCF3E
:00000001FF
